:100000000C9434000C9446000C9446000C9446006A
:100010000C9446000C9446000C9446000C94460048
:100020000C9446000C9446000C9446000C94460038
:100030000C9446000C9446000C9446000C94460028
:100040000C9446000C9446000C9446000C94460018
:100050000C9446000C9446000C9446000C94460008
:100060000C9446000C94460011241FBECFEFD8E03C
:10007000DEBFCDBF28E0A0E0B1E001C01D92A830F6
:10008000B207E1F70E9448000C94D7010C940000DD
:100090001092E0079EE79093E10782E48093E207E5
:1000A0008093E3078093E4078093E5079093E60746
:1000B0001092E7078FEF8093E80791E89093E907A4
:1000C0002DEB2093EA0735EA3093EB073093EC07EA
:1000D0002093ED079093EE078093EF072BED20938D
:1000E000F0071092F10726E62093F2071092F3072B
:1000F00028E12093F4072093F5079093F607809367
:10010000F7078093F8078093F9078093FA078093A5
:10011000FB078093FC078093FD078093FE07809385
:10012000FF07109200081092010810920208109226
:100130000308109204081092050810920608109205
:100140000708E0E0F1E09DE080838087808B808F6E
:1001500080A380A780AB80AF11821186118A118E97
:1001600011A211A611AA11AEDF01A05CBF4F1C9213
:1001700018961C9218961C9218961C9218961C920F
:1001800018961C9218961C9218961C92D7978C93CE
:1001900018968C9318968C9318968C9318968C932B
:1001A00018968C9318968C9318968C9382838287DA
:1001B000828B828F82A382A782AB82AF1382138647
:1001C000138A138E13A213A613AA13AED7971C92E9
:1001D00018961C9218961C9218961C9218961C92AF
:1001E00018961C9218961C9218961C92D7978C936E
:1001F00018968C9318968C9318968C9318968C93CB
:1002000018968C9318968C9318968C938483848775
:10021000848B848F84A384A784AB84AF15821586D6
:10022000158A158E15A215A615AA15AED7971C927C
:1002300018961C9218961C9218961C9218961C924E
:1002400018961C9218961C9218961C92D7978C930D
:1002500018968C9318968C9318968C9318968C936A
:1002600018968C9318968C9318968C938683868711
:10027000868B868F86A386A786AB86AF1782178666
:10028000178A178E17A217A617AA17AED7971C9210
:1002900018961C9218961C9218961C9218961C92EE
:1002A00018961C9218961C9218961C92D7978C93AD
:1002B00018968C9318968C9318968C9318968C930A
:1002C00018968C9318968C9318968C939150E058AE
:1002D000FF4F911139CF80E88093610080936100D6
:1002E00010926100E0E0F1E080EE96E0DF019C0119
:1002F0001D9221503040E1F7259A249A81E08093A5
:10030000810081E094E090938900809388001092AE
:1003100085001092840050E040E020E030E091E061
:10032000B19BFECF1092850010928400B19A4130AB
:1003300091F114B895B9000015B8259A82E1000032
:100340008150E9F7259895B982E100008150E9F7DD
:10035000552341F084E100008150E9F72C9A249A5A
:100360002C9824982F5F3F4F203181E03807D9F037
:1003700060F02233B1E03B07C1F02E3381E0380753
:1003800079F640E020E030E0CBCF2032310509F0B3
:10039000C7CF51E0C5CF25988CE100008150E9F727
:1003A0002D98259AD5CF50E0BBCF41E0B9CFF89436
:0203B000FFCF7D
:00000001FF
